:020000040000FA
:1000000002054C8F247525801208C3300123752505
:10001000801208AC750800852609E509750900F508
:10002000081208ACE5262509F509E43508F508802D
:1000300005E4F508F509AE08AF09220205DBE5176E
:10004000240BF8E60517227808300802780BE475CF
:10005000F0011205160204BE2001EB7F2ED20180B2
:1000600018EF540F2490D43440D4FF30050BEF2404
:10007000BFB41A0050032461FFE51860021518058B
:100080001BE51B7002051A30080D7808E475F001B5
:10009000120516EF02050402091B7403D20880033F
:1000A000E4C208F5178B088A09890AE4F518F51ADD
:1000B000F51BE51860077F2012007980F57519FFA0
:1000C000C202C201C203C204C206C207C2091200B0
:1000D00047FF700D3008057F0012008AAF1BAE1A73
:1000E00022B4255FC2D5C205120047FF24D0B40A4E
:1000F00000501A75F00A781830D50508B6FF0106C9
:10010000C6A426F620D5047002D20480D924CFB428
:100110001A00EF5004C2E5D20502028AD20280C65C
:10012000D20180C0D20380BCD2D580BAD20680B4BE
:100130007F201200792003077401B5180040F112E6
:10014000003EFF1200790200B2D209D20780951258
:10015000003EFB12003EFA12003EF94A4B7006794F
:100160005B7A037BFF20032EE518602A7E008E82D7
:100170007583001204D760060EEE651970F0C2D5C3
:10018000EBC0E0EAC0E0E9C0E0EE1202D1D0E0F955
:10019000D0E0FAD0E0FB1204BEFF60AAEBC0E0EAB8
:1001A000C0E0E9C0E0120079D0E02401F9D0E034E9
:1001B00000FAD0E0FBE5190460DCD519D980877B13
:1001C000FF7A0279CDD203809C791080027908C22F
:1001D00007C2098008D2D5790A8004790AC2D5E518
:1001E00019047002F519E4FAFDFEFF12003EFC7BD3
:1001F0000820021312003EFD7B1030010A12003E5F
:10020000FE12003EFF7B20EC3382D592D55013C303
:10021000E43001069FFFE49EFEE42002039DFDE41E
:100220009CFCE4CBF8C202EC700CCFCECDCCE82421
:10023000F8F870F38017C3EF33FFEE33FEED33FDB4
:10024000EC33FCEB33FB994002FB0FD8E9EB3002B7
:1002500005F8D0E0C448B202C0E00AEC4D4E4F7839
:10026000207B0070C2EAB5190040BCC0E01202D386
:10027000D0F0D0E0200204C4C0E0C4B202C0F0124A
:100280000062D0F0D5F0EB0200B2120526014F5308
:1002900001C95801204C011C4201CD4F01D5440138
:1002A000D54901354301DB5501BF4601BF4501BFBB
:1002B00047037B5001242D01282E014B2B012C23B9
:1002C00001492003642A00E448000001433F3F3F06
:1002D00000790AA2D5200414300609B910020404DA
:1002E000B9080104A2D52007025001042003689236
:1002F00003B518005034C0E07F203004197F30A2CD
:100300000372077206500F12032AC203C207C20605
:10031000C2097F30800F300603E9C0E01200793057
:100320000603D0E0F9D0E0B518CC3006177F30B91D
:10033000100C1200797F583005077F788003B908C8
:10034000031200793003057F2D0200797F202009F8
:10035000F87F2B2007F322920380CF286E756C6CF8
:100360002900D20212003E3002F8C202781830D5BD
:100370000108F60200E42D5043495812003E2403C0
:10038000B405004001E49003769312006A743A12B7
:10039000006AD2047518040201C975F0087582005C
:1003A000EF2FFFEE33FECD33CDCC33CCC58233C53A
:1003B000829BED9AEC99E58298400CF582EE9BFECB
:1003C000ED9AFDEC99FC0FD5F0D6E4CEFBE4CDFA26
:1003D000E4CCF9A88222B800C1B90059BA002DECCA
:1003E0008BF084CFCECDFCE5F0CBF97818EF2FFF62
:1003F000EE33FEED33FDEC33FCEB33FB10D703990A
:100400004004EB99FB0FD8E5E4F9FA227818EF2FB6
:10041000FFEE33FEED33FDEC33FCC933C910D705D5
:100420009BE99A4007EC9BFCE99AF90FD8E0E4C9F4
:10043000FAE4CCFB2275F010EF2FFFEE33FEED3324
:10044000FDCC33CCC833C810D7079BEC9AE8994051
:100450000AED9BFDEC9AFCE899F80FD5F0DAE4CDB3
:10046000FBE4CCFAE4C8F922EB9FF5F0EA9E42F0F7
:10047000E99D42F0EC6480C864809845F022E86011
:100480000FECC313FCED13FDEE13FEEF13FFD8F1D9
:1004900022EC8EF0A4CCC5F0CCCDF8EFA4CEC5F004
:1004A0002DFDE43CFCE8A42EC8C5F03DFDE43CFC79
:1004B000EFA4FFE5F028FEE43DFDE43CFC22BB0197
:1004C0000689828A83E0225002E722BBFE02E322F1
:1004D00089828A83E49322BB010CE58229F582E5B7
:1004E000833AF583E0225006E92582F8E622BBFE36
:1004F00006E92582F8E222E58229F582E5833AF5CC
:1005000083E49322BB010689828A83F0225002F79A
:1005100022BBFE01F322FAE6FB0808E6F925F0F615
:1005200018E6CA3AF622D083D082F8E493701274A7
:100530000193700DA3A393F8740193F5828883E46B
:10054000737402936860EFA3A3A380DF12092A7873
:100550007FE4F6D8FD75812602059602065DE493D8
:10056000A3F8E493A34003F68001F208DFF48029A6
:10057000E493A3F85407240CC8C333C4540F442095
:10058000C8834004F456800146F6DFE4800B010284
:10059000040810204080900927E47E019360BCA3EA
:1005A000FF543F30E509541FFEE493A360010ECFD2
:1005B00054C025E060A840B8E493A3FAE493A3F8FC
:1005C000E493A3C8C582C8CAC583CAF0A3C8C582BC
:1005D000C8CAC583CADFE9DEE780BEC0E0C0D0C2BA
:1005E0000020C255E5C054F02480603E24C060164F
:1005F00024E070418525C253C2FEA20BE43342C2FF
:10060000C2C5D20C803530C113300C0AC20C200B8D
:100610002A8524C28025D2C4C20A801FD2C4D2C572
:100620000523E52370150522801185C226C20AC262
:10063000C1D2C48006D2008002D20030001853C15B
:100640007F43C180C2C5C2C4C2C1C20AC200052361
:10065000E52370020522C2C0D0D0D0E03212084893
:10066000D2991209147BFF7A07795F1200A0120752
:10067000D1D3E51D9478E51C64809480500AE51F71
:100680009450E51E9400400CD291D2907BFF7A07E3
:1006900079858021C3E51D9464E51C6480948040C5
:1006A0000AE51F941EE51E9400500DC291C2907B76
:1006B000FF7A0779971200A07BFF7A0779AA851E37
:1006C0000B851F0C1200A07BFF7A0779BC851C0BE1
:1006D000851D0C1200A07F037E00120815808F8FED
:1006E0000F8E0E8D0D8C0CE4F517F516F515F5141F
:1006F000AF0FAE0EAD0DAC0CAB17AA16A915A81412
:10070000C31204685055E4F513F512F511F510E421
:100710007F367E01FDFCAB13AA12A911A810C312EB
:100720000468501C00E4FAF9F8E5132401F513EA13
:100730003512F512E93511F511E83510F51080CFB5
:10074000E4FAF9F8E5172401F517EA3516F516E984
:100750003515F515E83514F5148095E4FEFF2248AB
:10076000756D69646974792054656D706572617422
:100770007572652053656E736F7220526573657470
:1007800021200A0D00436F6D70726573736F7220C4
:100790004F6E21200D0A00436F6D70726573736F89
:1007A00072204F666621200D0A0048756D696469E4
:1007B00074792069733A2025750D0A0054656D70AF
:1007C000657261747572652069733A2025750D0A2A
:1007D000001208F07C007D7D120491781012047ED6
:1007E000EF24FA751E00F51F1208E87C447DA41260
:1007F0000491781012047EEF24B3FFEE34EDFEED89
:1008000034FFFDEC34FFFCE47B0AFAF9F81203D65E
:100810008E1C8F1D228E088F09E4F50AF50BC3E5A7
:100820000B9509E5086480F8E50A64809850157F07
:10083000607EEA7D007C001206DF050BE50B70DEB2
:10084000050A80DAE4FEFF2285A7081208CD120906
:100850001F1208F81209061208FF1208D61208DF44
:100860001208861208991208B912092312090D8577
:1008700008A722BF0A083099FDC29975990D3099D1
:10088000FDC2998F9922AF885388AF758D96EF542A
:1008900040FEEF54104E428822E5C8540453C8FB72
:1008A00053C8FC43C80A75CABC42C822200AFDD2FC
:1008B0000AD20BD2C5200AFD22758E087589204305
:1008C000884022200AFDD20AC20BD2C522E4F5A735
:1008D00053D9BFF5D92243B280E5B230E6FB22E41A
:1008E000F5A9E5A930E7FB22D2017FE3120003223C
:1008F000D2017FE51200032275A41075D4CF2275B2
:10090000E34075E1052275A50375D5032275E6015F
:1009100075A88022C2017FFE0200031208732275AF
:0B092000C9102243C1D722C10C0022E5
:00000001FF
